:020000040800F2
:10000000C80A0020A9010008BD210008E31C00085F
:10001000F51F00089F140008B12E00080000000022
:10002000000000000000000000000000212A00087D
:10003000551800080000000035280008112B0008A2
:10004000C3010008C3010008C3010008C301000880
:10005000C3010008C3010008C3010008C301000870
:10006000C30100087D1A0008C3010008C30100088D
:10007000C3010008C3010008C3010008C301000850
:10008000C3010008C3010008C3010008C301000840
:10009000C3010008C3010008C3010008C301000830
:1000A000C3010008C3010008C3010008C301000820
:1000B000C3010008752B0008512C0008C30100087B
:1000C000C3010008C3010008C3010008C301000800
:1000D000C3010008C3010008C3010008C3010008F0
:1000E000C3010008C3010008C301000800F002F8C2
:1000F00000F04AF80AA090E8000C82448344AAF178
:100100000107DA4501D100F03FF8AFF2090EBAE875
:100110000F0013F0010F18BFFB1A43F0010318473B
:10012000A0480000C0480000103A24BF78C878C139
:10013000FAD8520724BF30C830C144BF04680C60ED
:10014000704700000023002400250026103A28BF35
:1001500078C1FBD8520728BF30C148BF0B60704739
:10016000662903F0F085642900F054800020704770
:100170001FB500F019FC04000020002102F096FFDA
:10018000E0601FBD10B510BD00F00EFD1146FFF779
:10019000EFFF02F0FDFE00F02CFD03B4FFF7F2FFCD
:1001A00003BC00F02FFD00000948804709480047C4
:1001B000FEE7FEE7FEE7FEE7FEE7FEE7FEE7FEE717
:1001C000FEE7FEE704480549054A064B7047000074
:1001D000152B0008ED000008C8040020C80A002004
:1001E000C8060020C80600200FB41CB5084B06AA9C
:1001F0007B4469460090059800F0BDFB0446002052
:10020000694600F0CBFB20461CBC5DF814FB0000E7
:10021000A90700002DE9F041064600241068752961
:10022000314616A510D0AFF30080002802DA404214
:1002300013A507E031688A0701D512A502E0490736
:1002400004D511A5012401E0AFF3008000210A22AA
:1002500006F1240709E0B0FBF2FCB0FBF2F302FB6D
:100260001C00303078541846491C0028F3D123462E
:100270002A463046BDE8F04100F00FB9000000000A
:100280002D0000002B000000200000002DE9F05F91
:10029000894604464FF0000ADFF874B1FB44C0F809
:1002A00020A02046E1688847002874D0252806D081
:1002B000D4E901219047206A401C2062F1E7002622
:1002C0005F462046E16888472028054607DB312D38
:1002D00005D2781910F8200C08B10643F1E7B007F1
:1002E00001D526F00406C4F81CA00027C4F818A005
:1002F0002A2D09D0284602F043FE38B304EB8708C4
:10030000303DC8F8185019E059F8041B204604EB9A
:1003100087029161E1688847012F054618D1E0699D
:10032000002820DA26F020061DE0D8F8180000EB9F
:10033000800005EB40003038C8F818002046E1681E
:100340008847054602F01CFE0028EED1012F0AD096
:100350002E2D08D12046E16888477F1C0546022FD4
:1003600046F02006C4DBA069002803DA404246F0CC
:100370000106A061F00701D026F010066C2D0BD00D
:10038000682D09D04C2D39D06A2D35D0742D35D03B
:100390007A2D33D016E038E0E1682F4620468847B2
:1003A000B842054609D16C2F26D04FF48060E16831
:1003B000064320468847054604E06C2F1AD04FF4C8
:1003C000807006430DB3A5F14100192802D82035ED
:1003D00046F400664A462946204626604E46FFF708
:1003E000BFFE80B101280BD0F61D26F0070000F1FA
:1003F000080956E74020E4E78020D8E70020D6E748
:1004000006F104094DE7284652E7206ABDE8F09F4F
:10041000784600004FF0013C50F8042B51F8043BA3
:100420009A4221D1A2EB0C03934313EACC1317D1C8
:1004300050F8042B51F8043B9A4215D1A2EB0C035F
:10044000934313EACC130BD150F8042B51F8043B1F
:100450009A4209D1A2EB0C03934313EACC13DBD0ED
:100460004FF00000704700BFD01A01BAB1FA81F115
:1004700001F0180122FA01F0CB40C1F12001DBB2FA
:10048000C0B2C01A2CFA01F3D11A914311EAC31178
:10049000E6D170477047704770472DE9F0470D4629
:1004A00099469246044600F124080168880604D55E
:1004B000E06921F01001216000E00120A84201DD87
:1004C000471B00E00027A1697A1902EB0900081A0E
:1004D000A0612078C00602D42046AFF30080002639
:1004E00008E0D4E901211AF806009047206A401C70
:1004F000761C20624E45F4DB2078C0060AD52046E3
:10050000AFF3008006E0D4E9012130209047206A53
:10051000401C2062381EA7F10107F4DC07E0D4E993
:10052000012118F805009047206A401C2062281E0F
:10053000A5F10105F3DC2046AFF30080207800062A
:1005400002D50220BDE8F0870120FBE770472DE9C6
:10055000FF4F0C461E464FF0FF378BB0D2E900012B
:10056000DDF860800A908A46C1F30A5505B93D4618
:10057000002108464FF00000BAF1000F00F44000DF
:1005800005DA00EB80004FF4400101EA50004FEA29
:100590009059B9F1010F00DDB9460A9850EA4A00B6
:1005A0000ED044F61050A5F2FF3545432F14B8F194
:1005B000000F1ED07542291E1EDDC9F100021CE08D
:1005C000B8F1010F4FF0000001D0302103E0F243F9
:1005D00005E02154401CB042FBDB304600220021E4
:1005E00021540B99C1F80880C1E900200FB0BDE883
:1005F000F08FBD1B6D1CDEE74A4600DA694206A893
:1006000000F05CFA06AB93E8070003AB83E8070051
:1006100050460A9900F0FDFA8DE80700A0F5005059
:100620001F3800900398002D0ADD42F21F014A4650
:100630000844002303A90390684600F066FD09E022
:10064000A0F500504A461F38002303A903906846CE
:1006500000F070FD8DE807000004000C03D04FF09F
:10066000FF30410800E01046B8F1000F03D000222F
:10067000009215461EE0751E05D400F099F930323F
:1006800062556D1EF9D5B3460122084302D00022FF
:100690007F1C04E02078302801D100227F1E002A30
:1006A000099784D01DE0112D07DA00F081F930326E
:1006B00062556D1C50EA0102F5D1084302D0009842
:1006C000C8B10EE00021681E05E0235C625C635443
:1006D0002254401E491C8142F7DBAB46A81B401E3A
:1006E0000990002004F80B000B98099AC0F80880C4
:1006F000C0E9002B7AE711264FF0000857E72DE9F3
:10070000F04F88460446D21D22F0070191B0D1E98E
:100710000001CDE90A0102F01FFC02460B98C00F50
:1007200001D02D2007E02068810701D52B2002E0B1
:10073000202101EAC000032A099001D0072A05DB25
:1007400003464146204600F079F90BE12078800607
:1007500001D5E06900E00620B8F1650F814606D0BA
:10076000B8F1660F18D0B8F1670F70D131E00020F2
:10077000B9F1110F009001DB112301E009F1010330
:100780000AAA01A90CA8FFF7E2FEDDE90C70002619
:1007900009F10105834647E001204B4600904FF0E8
:1007A00000470AAA01A90CA8FFF7D1FEDDE90DB0A8
:1007B0000C995D46002610B909F101000D18B9EB3E
:1007C000050003D4C0F1FF3609F10105A5EB0900CE
:1007D0002BE0B9F1010F01DA4FF001090020B9F166
:1007E000110F0090484601DD112300E003460AAADC
:1007F00001A90CA8FFF7ABFEDDE90C704D46002601
:100800008346207800070AD4AB4500DA5D4601A88C
:10081000012D04DD411911F8011C302907D04F4585
:1008200002DA17F1040F04DA012082460FE06D1E90
:10083000EEE7002F02DCED1B3E4403E0781CA842EB
:1008400000DD7D1CB81B00F1010A4FF00047207845
:10085000000703D4AA4501DB4FF0FF3A0021B7F1AE
:10086000004F0DF143088DF8431024D002202B23B4
:10087000002F01DA7F422D230A21021EA0F1010080
:1008800000DC5FB197FBF1FC97FBF1F201FB1C7CF4
:1008900017460CF1300C08F801CDEEE7A8F1010085
:1008A00003702188090501D5452100E06521A0F1EB
:1008B000010800F8011C09980FA9A1EB0807FF1D0A
:1008C00000B10120411901EBEA70A1693844081A0E
:1008D000401EA0612078C00602D42046AFF30080FD
:1008E000099828B1D4E901219047206A401C206270
:1008F0002078C00622D52046AFF300801EE0002EEF
:1009000004DBB34502DD01A8805D00E03020D4E9BE
:1009100001219047206A401C2062761CAAF1010048
:100920005FEA000A0AD100F03FF8C0680168405C45
:10093000D4E901219047206A401C2062281EA5F1BD
:100940000105DCDC07E0D4E9012118F8010B904730
:10095000206A401C2062381EA7F10107F3DC204604
:10096000AFF30080032011B041E6000001694A1C8A
:1009700002610878704700B58FB0CDE901310021E0
:10098000059105497944CDE9031011466846FFF702
:100990007DFC0FB000BD0000E5FFFFFF0A6802F814
:1009A000010B0A607047000000487047880400206F
:1009B00030B5B0F10A024FEA900E71F100034EEA31
:1009C000817EB0EB0E0061EB91014FEA101E4EEA02
:1009D000017E10EB0E0041EB11114FEA102E4EEA92
:1009E000016E10EB0E0041EB11214FEA104E4EEA62
:1009F000014E10EB0E0041EB1141401841F1000196
:100A00004FEAD00040EA41704FEAD10110EB800577
:100A10004FEA810444EA907444EB01046D1944EBFD
:100A20000404521BA3414FF0000348BF0A3200D513
:100A300030BD401C41F1000130BD00002DE9F04106
:100A40001F46044603260168072A01F4006004DB00
:100A500008B116A505E016A503E008B115A500E04C
:100A600015A521F010002060A069C01EA0610FB183
:100A7000401EA0612046AFF300804FB1D4E90121B0
:100A800038469047206A401C2062C01C206206E065
:100A9000206AFAE7D4E9012115F8010B9047761E88
:100AA000F8D22046AFF30080BDE8F0814E414E0001
:100AB0006E616E00494E4600696E66002DE9F04792
:100AC000814616468AB0354878440DC88DE80D0039
:100AD00032487844801C03AC0DC884E80D0041F610
:100AE0009B300844372190FBF1F290FBF1F5A5F122
:100AF000800501FB12041B3C02D56442012000E08A
:100B00000020DFF898A080460027FA44AAF1BE0A28
:100B10000EE0E0070AD03246684607EB47010123A2
:100B20000AEB810100F006FB8DE8070064107F1CD2
:100B3000002CEED1194F7F44AE3F19E0E80715D0E5
:100B400007EB04100DF1180A90E80E008AE80E0079
:100B5000C068F04201D1981908903246012306A9D5
:100B600003A800F0E7FA03AB83E807006D10641CEC
:100B7000002DE3D14FF0010332466946B8F1000F72
:100B800003A802D000F0C1FA01E000F0D3FAC9E9ED
:100B90000001C9F808200AB0BDE8F087DC3E00007B
:100BA00000487047680400207546FFF7F9FFAE461D
:100BB00005006946534620F00700854618B020B569
:100BC000FFF700FBBDE820404FF000064FF00007A4
:100BD0004FF000084FF0000B21F00701AC46ACE8E5
:100BE000C009ACE8C009ACE8C009ACE8C0098D4652
:100BF000704710B50446AFF300802046BDE81040B2
:100C0000FFF7CBBA01491820ABBEFEE72600020071
:100C100070475FEA400C08BF91F0000F4FEA8C2349
:100C20004FEAC12243EA51514FEA1C5018BF00F568
:100C3000F0404FEA300018BF41F000415FEA6C5CC1
:100C400000F02980BCF1FF3F08BF40F080407047B2
:100C5000130C06BF12044FF0100C4FF0000C130ED3
:100C600004BF12020CF1080C130F04BF12010CF1A7
:100C7000040C930F04BF92000CF1020CD30F04BFBD
:100C800052000CF1010C11464FF00002A0F11F00C0
:100C9000A0EB0C00704711F0004F08BF704731F017
:100CA00000413FF4D5AF0B0C06BF09044FF0100C08
:100CB0004FF0000C0B0E04BF09020CF1080C0B0FD7
:100CC00004BF09010CF1040C8B0F04BF89000CF167
:100CD000020CCB0F04BF49000CF1010CCCF1200336
:100CE000A0EB0C0022FA03F302FA0CF241EA030132
:100CF00000F10100704720F07F4C80EA030023F0F0
:100D00007F47ACEB070303F57C5300F0004003F191
:100D1000FF032DE980494FEA154B09B44FEA14430C
:100D200025EA0B4E24EA03480FF2042606EB1327AC
:100D300049083E785FEA320203FB0667C7F5000701
:100D400007FB06F64FEA54374FEAD64606F102068D
:100D500007FB066CCCF1005C4FEA1C472CEA074C01
:100D600007FB06F40CFB06F504EB15464FEA961656
:100D700034BF00204FF000404FEAD13706FB07FC9C
:100D80004FEA1C4C0CFB0BF7D21B03FB0CF761EB7F
:100D900007010CFB0EF7B0EB074072EB17420CFBA0
:100DA00008F734BFA2EB0742B2EB074261EB1741F1
:100DB0004FEA0C444FEA910706FB07FC4FEA1C4C34
:100DC0000CFB0BF7B0EBC74072EB573203FB0CF791
:100DD00034BFA2EBC742B2EBC74261EB57310CFB09
:100DE0000EF7B0EBC70072EB57720CFB08F734BF7D
:100DF000A2EBC702B2EBC70261EB5771039F4FEA48
:100E0000816141EA921104EBCC044FEAD1374FEAF9
:100E1000826206FB07FC42EA90124FEA80604FEACA
:100E20001C4C0CFB0BF7D21B03FB0CF761EB07010F
:100E30000CFB0EF7B0EB074072EB17420CFB08F708
:100E400034BFA2EB0742B2EB074261EB17414FEA16
:100E50008C554FEA910704EB9C2406FB07FC4FEAF4
:100E60001C4C0CFB0BF7B0EBC74072EB573203FB8B
:100E70000CF734BFA2EBC742B2EBC74261EB57316C
:100E80000CFB0EF7B0EBC70072EB57720CFB08F7C8
:100E900034BFA2EBC702B2EBC70261EB577115EB8F
:100EA0004C254FEA816141EA92114FEA82624FEA92
:100EB000D13742EA901206FB07FC44F100044FEAE6
:100EC00080604FEA1C4C0CFB0BF7D21B03FB0CF7AA
:100ED00061EB07010CFB0EF7B0EB074072EB17421A
:100EE0000CFB08F734BFA2EB0742B2EB074261EB01
:100EF000174115EB1C154FEA813141EA92414FEA47
:100F0000823242EA90424FEA80304FEA0C7644F156
:100F1000000448EA03434EEA0B484FF0000EB2EBE0
:100F2000080C71EB030724BF624639464EEB0E0EE8
:100F30004FF0000B0018524149414BEB0B0BB2EB49
:100F4000080C71EB03077BF1000B24BF62463946A6
:100F50004EEB0E0E4FF0000B0018524149414BEB87
:100F60000B0BB2EB080C71EB03077BF1000B24BFFA
:100F7000624639464EEB0E0E51EA020718BF46F0A4
:100F8000010616EB0E7655F1000254F1000103D56F
:100F9000BDE88901BDE80088BDE88901BDE80048D9
:100FA000B619524141EB0101A3F101037047808062
:100FB0007F7E7D7C7B7A79787776767574737271B3
:100FC00071706F6E6E6D6C6C6B6A6A69686867666B
:100FD00066656464636362616160605F5F5E5E5DFD
:100FE0005D5C5C5B5B5A5A59595858575756565571
:100FF00055555454535352525251515050504F4FD3
:101000004F4E4E4D4D4D4C4C4C4B4B4B4A4A4A4922
:101010004949484848474747474646464545454465
:101020004444444343434342424242414141002BF2
:101030009C4630D477002BD01CB54FEA370703B459
:101040004FF010004FF01001BAF1000F06D0BCF1C4
:10105000000FDCBF40F0080040F008014FF0000036
:101060000FBCBDE810400BF1010BBBF1010F08BF35
:101070005FEA170722BF12F1010211F101014FF0DF
:10108000004143F1000300F0004043EA00007047D4
:10109000F9D35708D0E746EA064613F1400F4FEA66
:1010A00016461FDD13F1200FDFBF16430A4600214D
:1010B00020335B42BED0C3F1200746EA064602FA5F
:1010C00007F74FEA164646EA0706C3F1200722FA59
:1010D00003F201FA07F721FA03F14FF0000342EAA5
:1010E0000702A7E746EA020646EA06464FEA164620
:1010F00046EA0106BCBF46EA0646360C4FF000033E
:101100004FF000024FF0000194E72DE9804C9A4621
:10111000934670B491E8380007C831EA400C48BFE4
:1011200034EA430C03D5FFF7E6FDFFF780FFF0BC80
:10113000BDE8008C2DE9804C9A46934670B491E846
:10114000380007C810F0804F08BF13F0804F03D15C
:1011500000F005F8FFF76BFFF0BCBDE8008C20F055
:101160007F4780EA030023F07F4C07EB0C03A3F5D5
:101170007C5300F00040A3F1FE0392F0000F00F05A
:10118000B38095F0000F00F077802DE901494FEA18
:1011900011404FEA144621EA004800FB06FC24EA0D
:1011A000064708FB06F607FB08F800FB07F718EBF5
:1011B00006484CEB164C4FEA124B18EB07484FEA27
:1011C00015464CEB174022EA0B4E0BFB06FC25EABA
:1011D00006470EFB06F607FB0EFE0BFB07F71EEBA2
:1011E000064E4CEB164C4FF000061EEB074E4CEB38
:1011F000174B18EB0B0840F1000018EB0E0B58EBE7
:10120000000840F100008F1A4FF000013CBFC943B5
:10121000661B14BFB5EB040C00213CBFC943F61B91
:101220004FEA17444EEA8E0E27EA04454FEA1C4760
:1012300004FB07622CEA074C05FB07F70CFB05F6DD
:1012400004FB0CFC16EB074642EB174216EB0C4670
:1012500042EB1C421BEB060658EB0202414146EAF8
:101260009E0601D5BDE80189B619524141EB010145
:10127000A3F10103BDE801894FEA14454FEA114784
:1012800024EA054621EA074C05FB07F406FB07F7AD
:101290000CFB06F105FB0CFC11EB074144EB17447A
:1012A0004FEA124711EB0C4144EB1C4422EA074C75
:1012B00005FB07F206FB07F70CFB06F605FB0CFC2B
:1012C00016EB074642EB174216EB0C4642EB1C4569
:1012D0006A1854F1000148BF7047B619524141EBFA
:1012E0000101A3F10103704795F0000F37D04FEAD9
:1012F00011424FEA144721EA024624EA074C02FB56
:1013000007F106FB07F70CFB06F402FB0CFC14EBE1
:10131000074441EB17414FEA154714EB0C4441EBEE
:101320001C4125EA074C02FB07F506FB07F70CFBFF
:1013300006F602FB0CFC16EB074645EB174516EBD1
:101340000C4645EB1C42121951F1000148BF704791
:10135000B619524141EB0101A3F1010370474FEA75
:1013600014454FEA114724EA054621EA074C05FBDC
:1013700007F106FB07F70CFB06F24FF0000605FB32
:101380000CFC12EB074241EB174112EB0C4251EB04
:101390001C4148BF7047921841EB0101A3F10103C2
:1013A000704770B505460E46002409E02919C8B2F9
:1013B000FF2100F043F8052000F04DFA601C84B2D4
:1013C000B442F3DB70BD10B500F04EFE10BD70B539
:1013D000044600F0BDFEA02000F0A5FE00F06EFE69
:1013E000204600F0A0FE00F069FE00F0B1FEA12052
:1013F00000F099FE00F062FE00F06FFE054601204D
:1014000000F085FE00F0B2FE284670BDF8B5044637
:101410000E461746002500BF0BE0E0B2FFF7D7FFEE
:101420000DF80500601C84B2052000F014FA681C59
:10143000C5B2042DF1DB00983060F8BD70B50546EB
:101440000C4600F085FEA02000F06DFE00F036FE98
:10145000284600F068FE00F031FE204600F063FEF2
:1014600000F02CFE00F082FE052000F0F4F970BDC3
:10147000F8B504460E4600253068009000BF0BE02A
:101480001DF80510E0B2FFF7D9FF601C84B20520FB
:1014900000F0E1F9681CC5B2042DF1DBF8BD00BF16
:1014A000FEE7000008B50121082001F0E1F9102055
:1014B0008DF803000002ADF8000003208DF8020053
:1014C0006946024800F070FB08BD0000000C0140B6
:1014D00010B54FF48051024800F0FCFB10BD000035
:1014E000000C014010B54FF48051024800F0F0FBB1
:1014F00010BD0000000C01401FB50121042001F0C7
:10150000B7F90121084601F0B3F948208DF80F0022
:101510000820ADF80C0003208DF80E0003A9124836
:1015200000F042FB0321002000F01EFB0820019088
:1015300001208DF80A0000208DF808000C208DF89D
:10154000090001A800F0C6FA09208DF8000001206A
:101550008DF8030000208DF801008DF80200684628
:1015600000F02EFE1FBD00000008014010B5002451
:101570001848006820F07040164908600846006866
:1015800040F00040086004E0601C84B2012000F0DC
:101590006EF910480830006800F0010008B1C82C4E
:1015A000F2DBC82C01DB012010BD002404E0601C2C
:1015B00084B2012000F05BF906480830006800F0B2
:1015C000010008B9F02CF2DBF02C01DB0120EBE785
:1015D0000020E9E70008014010B500F009F80349D0
:1015E00008804FF4FA7000F036F910BD2C0000208E
:1015F0002DE9F84F00F0DAF800F0B2F8FFF7B6FF87
:10160000CC2000F0DFF8BE2000F0DCF800F096F807
:10161000834600F093F80446072C08DDE043C4B28B
:101620006FEA0B0000F0FF0B4FF0000A01E04FF0F3
:10163000010AA1464FEA09200FFA80F909EB0B00D5
:101640000FFA80F9484602F0D3FA009002F0D6F97A
:1016500007460022084B01F0E9FF054601F0B6FFFE
:101660000FFA80F9BAF1000F02D04846BDE8F88FB2
:10167000C9F1000000B2F9E70000E43F08B501211C
:10168000042001F0F5F80120ADF8000010208DF8DD
:10169000030003208DF802006946084800F084FA30
:1016A0000121064800F016FB00F05AF84FF448708C
:1016B00000F0DDF8FFF75AFF08BD00000008014008
:1016C00010B51D48006820F070401B4908600846AE
:1016D000006840F04050086017481430006840F03F
:1016E0000100154914310860022000F0C0F81248CA
:1016F0001030006840F001000F49103108600E48BA
:10170000006820F070400C4908600846006840F00E
:10171000004008600C2000F0AAF807480830006874
:1017200000F0010008B1012400E00024322000F0A4
:101730009EF8204610BD00000008014070B500264C
:10174000012508E0FFF7BCFF0446E00140EA66001F
:10175000C6B2681CC5B2082DF4DD304670BD00006D
:1017600010B51148006820F070400F490860084625
:10177000006840F0405008600B481430006840F0AA
:10178000010009491431086040F2EE2000F06FF8C2
:1017900005481030006840F001000349103108602E
:1017A0000F2000F064F810BD0008014010B5FFF7ED
:1017B000D7FFFFF7DBFECC2000F004F8442000F058
:1017C00001F810BD70B504462148006820F0704053
:1017D0001F4908600846006840F040500860012535
:1017E00032E004F001066410B6B119481430006804
:1017F00040F00100164914310860022000F037F86B
:1018000013481030006840F00100114910310860A1
:101810003C2000F02CF815E00D481430006840F032
:1018200001000B49143108603C2000F020F8084802
:101830001030006840F001000549103108600220B6
:1018400000F015F8681CC5B2082DCADD70BD000097
:1018500000080140704700B5034603E04FF47A707A
:1018600000F005F8181EA3F10103F7D100BD00EB4D
:10187000C001C9004FF0E0225161002191610521B2
:10188000116100BF4FF0E021096901F480310029A6
:10189000F8D004214FF0E0221161704770B54C4838
:1018A0000078102806D020280CD030285CD04028A2
:1018B0007DD16DE047A21821202000F01BFE00F032
:1018C00013FF81E047A20021084600F013FE4848BC
:1018D000006802F093F8044622460B4645A14748AB
:1018E000FEF782FC0823454A0021282000F0E4FE90
:1018F00043A21821002000F0FDFD4448006802F0DA
:101900007DF8044622460B4641A13C48FEF76CFC9C
:1019100008233A4A1821282000F0CEFE40A23021A8
:10192000002000F0E7FD4148B0F900000A2190FBDB
:10193000F1F201FB12043D48B0F9000090FBF1F513
:1019400023462A463AA13C48FEF74EFC08233A4A71
:101950003021282000F0B0FE38A23021502000F0C5
:10196000C9FD00F0C1FE2FE035A21021082000F0D3
:10197000C1FD394802782FA12048FEF735FC082325
:101980001E4A2021382000F097FE00F0ADFE1BE03B
:1019900032A21021084600F0ADFD3548006802F083
:1019A0002DF8044622460B4632A1144800E00AE016
:1019B000FEF71AFC0823114A2021302000F07CFE9B
:1019C00000F092FE00E000BF00BF00F08DFE70BD91
:1019D00038000020E8B685E9809FE68AA5E8ADA634
:1019E00000000000E9878CE7A88BEFBC9A0000009C
:1019F00028000020252E32666B6D00003C0400207C
:101A0000E9809FE5BAA6EFBC9A0000002400002000
:101A1000252E32666B6D2F682020202000000000EC
:101A2000E6B8A9E5BAA6EFBC9A0000002C00002099
:101A3000252B642E256400005C040020E2848300D2
:101A4000E8AEBEE7BDAEE9809FE5BAA6E68AA5E8A6
:101A5000ADA6E580BC0000001C000020E8AEBEE79B
:101A6000BDAEE8BDA6E8BDAEE5B0BAE5AFB80000D2
:101A700034000020252E31660000000010B508203B
:101A800000F014F8012807D104480068401C0349FD
:101A90000860082000F004F810BD000000000020DD
:101AA000014908607047000014040140014600200D
:101AB0000022074B1B6803EA0102054B14331B6825
:101AC0000B4013B10AB1012000E000207047000074
:101AD00000040140002123498279002A3AD00A46B5
:101AE000126803689A430B461A600A1D126803685D
:101AF0009A430B1D1A60027911440A6803681A435D
:101B00000A60184A0832126803689A43154B083372
:101B10001A601A1D126803689A43124B0C331A603C
:101B20004279102A0ED11A1F126803681A430D4B0E
:101B300008331A601A1D126803681A43094B0C33E4
:101B40001A600DE00749427911440A6803681A4394
:101B50000A6005E0027911440A6803689A430A6042
:101B6000704700000004014030B500228B071C0FB5
:101B70000F2303FA04F20B4B8C1053F824309343D9
:101B8000084C8D1044F8253023468C1053F824302F
:101B90008C07240F00FA04F42343024C8D1044F800
:101BA000253030BD080001402DE9F04102460025F6
:101BB0000026002000230024002791F803C00CF029
:101BC0000F0591F803C00CF0100CBCF1000F03D00E
:101BD00091F802C04CEA050591F800C0BCF1000F75
:101BE00031D0146800202BE04FF0010C0CFA00F308
:101BF000B1F800C00CEA03069E4220D183004FF0EA
:101C00000F0C0CFA03F7BC4305FA03FC4CEA04047E
:101C100091F803C0BCF1280F06D14FF0010C0CFA6B
:101C200000FCC2F814C00AE091F803C0BCF1480FF0
:101C300005D14FF0010C0CFA00FCC2F810C0401C9A
:101C40000828D1D31460B1F800C0BCF1FF0F34DD17
:101C5000546800202EE000F1080C4FF0010808FA4B
:101C60000CF3B1F800C00CEA03069E4221D18300B8
:101C70004FF00F0C0CFA03F7BC4305FA03FC4CEAD7
:101C8000040491F803C0BCF1280F05D100F1080C41
:101C900008FA0CF8C2F8148091F803C0BCF1480FA0
:101CA00007D100F1080C4FF0010808FA0CF8C2F84F
:101CB0001080401C0828CED35460BDE8F081024655
:101CC000002093680B400BB1012000E0002070471A
:101CD00041617047016170470AB1016100E04161F3
:101CE000704700BFFEE7000010B500240121334813
:101CF000FFF7E5FF68B91420FFF7ADFD00BF012134
:101D00002E48FFF7DCFF0028F9D01420FFF7A3FDD1
:101D1000012402212948FFF7D2FF68B91420FFF7F8
:101D20009AFD00BF02212548FFF7C9FF0028F9D01E
:101D30001420FFF790FD02244FF480611F48FFF745
:101D4000BEFF70B91420FFF786FD00BF4FF480611D
:101D50001A48FFF7B4FF0028F8D01420FFF77BFDE6
:101D600003244FF400611548FFF7A9FF70B9142050
:101D7000FFF771FD00BF4FF400611048FFF79FFFB0
:101D80000028F8D01420FFF766FD04244FF400511A
:101D90000A48FFF794FF70B91420FFF75CFD00BFFD
:101DA0004FF400510548FFF78AFF0028F8D01420AF
:101DB000FFF751FD0524204610BD0000000C014036
:101DC00008B50121082000F053FD48208DF80300DC
:101DD00042F60340ADF8000003208DF8020069468A
:101DE0000148FFF7E1FE08BD000C014070B5FFF7A8
:101DF0007BFF5E49087008460078002874D00846CA
:101E00000078062871D2DFE800F0AD03092D789F35
:101E100010205749087000F015FAA4E054480078E3
:101E2000102805D120205249087000F00BFA18E064
:101E30004F480078202805D130204D49087000F027
:101E400001FA0EE04A480078302805D14020484980
:101E5000087000F0F7F904E020204549087000F010
:101E6000F1F980E042480078202804D0302815D0CD
:101E700040283FD11CE03F4800780A3040B23D493D
:101E80000870084690F90000642801DD0020087001
:101E9000384890F9000000F0C7F82CE03648007888
:101EA000632804DA34480078401C3349087022E083
:101EB0003248006801F0A2FD04460022304B01F0D8
:101EC00049FB03D12F482D49086012E02B480068D8
:101ED00001F094FD044600222B4B01F03BFB05D1A1
:101EE0002A482649086004E03EE03BE028482349B0
:101EF000086000E000BF00BF35E01D4800782028E2
:101F000002D030281DD112E01A480078143840B2AF
:101F100018490870084690F90000002801DA0020EE
:101F20000870144890F9000000F07EF80AE01248AA
:101F30000078002804DD10480078401E0E49087023
:101F400000E000BF00BF0EE009480078202807D15C
:101F500004210020FFF725FA00200E49086000BF89
:101F600000BF00E000BF00BF70BD000010000020F7
:101F700038000020110000201C0000203400002048
:101F800000003A400000DC4100803B400000E84196
:101F90000000D0412800002010B54FF480410248D5
:101FA000FFF796FE10BD00000010014010B54FF481
:101FB00080410248FFF78EFE10BD00000010014076
:101FC00008B50121102000F053FC10208DF803000B
:101FD0008002ADF8000003208DF802006946044835
:101FE000FFF7E2FD4FF480410148FFF773FE08BDA3
:101FF0000010014000BFFEE708B50121042000F0F9
:1020000037FC10208DF803003020ADF800000320CD
:102010008DF8020069460348FFF7C6FD00F0B8FBE3
:1020200008BD00000008014010B50446002C0BDB81
:1020300010210C48FFF74EFE20210A48FFF748FE0A
:10204000A0B200F0EFFB0BE010210648FFF740FEC6
:1020500020210448FFF73EFE614288B200F0E2FB17
:1020600010BD00000008014008B50121042000F067
:10207000FFFB14208DF803004FF44070ADF8000012
:1020800003208DF8020069460448FFF78DFD4FF4E8
:1020900040710248FFF71EFE08BD00000008014025
:1020A00010B54FF400710448FFF709FE04460A20FA
:1020B000FFF7DDFB204610BD0008014010B50120F0
:1020C00000F06EF8012000F05DF8FFF7E9FF04462C
:1020D000002000F057F8204610BD70B50025012003
:1020E00000F05EF800240EE0012000F04BF8FFF74E
:1020F000D7FF012802D1802020410543002000F0B5
:1021000041F8601CC4B2082CEEDB284670BD10B547
:102110000446204600F044F8012000F033F8002087
:1021200000F030F810BD70B5054600240DE08021A8
:10213000214101EA050000F033F8012000F022F807
:10214000002000F01FF8601CC4B2082CEFDB70BD4B
:1021500010B5012000F024F8012000F013F8002051
:1021600000F01EF8002000F00DF810BD10B50020A2
:1021700000F016F8012000F005F8012000F010F83A
:1021800010BD000010B5044622464FF4807103488C
:10219000FFF7A2FD0A20FFF76AFB10BD000801400F
:1021A00010B5044622464FF400710348FFF794FD32
:1021B0000A20FFF75CFB10BD0008014070470000DB
:1021C00070B5002100230F22C47804B3154C246895
:1021D00004F4E064C4F5E064210AC1F10403CA40D8
:1021E000447804FA03F184781440214309010E4C29
:1021F0000678A155047804F01F050124AC40057849
:102200006D11AD0005F1E025C5F8004109E0047845
:1022100004F01F050124AC40044D0678761145F802
:10222000264070BD0CED00E000E400E080E100E03D
:1022300002490143024A1160704700000000FA059C
:102240000CED00E000200CE0002106E00022064B2F
:1022500003EBC0135A544A1CD1B28029F6DB421C4E
:10226000D0B20828F0DB70473C0000202DE9F04395
:1022700004460D4616461F467F2C01DDBDE8F0835F
:102280003F2D00DDFAE7A119802902DDC4F18001AC
:10229000CEB2E919402902DDC5F14001CFB228468E
:1022A00030E0234629E04FEAE07C00EB5C7C4FEA1B
:1022B000EC0CDFF85C8008EBCC1C1CF803C0024679
:1022C0004FEAE07800EB58784FEAE808A0EBC8093D
:1022D0004FF0010808FA09F82CEA080C01464FEA09
:1022E000E07800EB58784FEAE808DFF8249009EB33
:1022F000C81808F803C0591CCBB2A1199942D2DC06
:10230000411CC8B2E9198142CBDC00BFB6E700002E
:102310003C00002038B5002406E0002500E06D1CDC
:10232000B5F57A7FFBD3641CB4F57A7FF5D3012130
:10233000082000F09DFA14208DF8030003208DF88A
:1023400002004FF48070ADF8000069460848FFF7BE
:102350002BFC4FF40070ADF8000069460448FFF70D
:1023600023FC012000F0D4F9012000F0DDF938BD94
:10237000000C014070B50546002411E08021214188
:10238000294009B1012100E00021084600F0CCF904
:10239000012000F0BDF9002000F0BAF9601CC4B2C1
:1023A000082CEBDB012000F0B3F9002000F0B0F9BD
:1023B00070BD10B5012000F0B7F9012000F0A8F9B8
:1023C000002000F0B1F9002000F0A2F910BD10B516
:1023D000002000F0A9F9012000F09AF9012000F096
:1023E000A3F910BD10B5FFF795FFAE2000F0A8F9D6
:1023F000D52000F0A5F9802000F0A2F9A82000F077
:102400009FF93F2000F09CF9D32000F099F90020BB
:1024100000F096F9402000F093F9A12000F090F927
:10242000C82000F08DF9DA2000F08AF9122000F0BF
:1024300087F9812000F084F9CF2000F081F9D920BC
:1024400000F07EF9F12000F07BF9DB2000F078F954
:10245000302000F075F9A42000F072F9A62000F0F9
:102460006FF98D2000F06CF9142000F069F9AF20AD
:1024700000F066F9FFF7E6FE00F036F910BD70B522
:1024800005460C4645F0B00000F05AF9102141EA2B
:10249000141000F055F904F00F0000F051F970BD70
:1024A000F8B506460F4614461D46082D0CD1A4F17A
:1024B00020000E4901EB001010230822394600903D
:1024C000304600F063F80FE0062D0DD1A4F1200096
:1024D00000EB4000064901EB400008230622394684
:1024E0000090304600F052F8F8BD00004A3D000868
:1024F0003A4300082DE9FC478046894616460027E6
:1025000000200190002538E0705D01A9C855781CB5
:10251000C7B2032F2FDB002700240BE004EBC4011C
:10252000184A02EB810001A9FDF774FF00B90BE026
:10253000601CC4B204EBC401124A02EB810012A178
:10254000FDF768FF0028E9D100BF681C032190FB5C
:10255000F1F0401E08EB001000F0FF0A04EBC4008D
:10256000084901EB8000001D10231A4649460090DF
:10257000504600F00BF8681CC5B2705D0028C3D14E
:10258000BDE8FC8774450008000000002DE9F04715
:1025900007460C4690469946DDF820A07F2F01DDC6
:1025A000BDE8F0873F2C00DDFAE74B464246214666
:1025B0003846FFF75BFE002570E0002669E0B81999
:1025C0007F2800DD67E0E11704EB517105EBE101C5
:1025D000072900DDE4E72046E21704EB527205EB21
:1025E000E202344B03EBC212BB19D25C2146E31763
:1025F00004EB5373DB10A4EBC30305FB086C1AF860
:102600000CC00CFA03FC42EA0C02E31704EB537310
:1026100005EBE303DFF89CC00CEBC31307EB060CE0
:1026200003F80C20E11704EB517105EBE101491CA3
:10263000072900DD2BE02046E21704EB527205EB80
:10264000E202521C1B4B03EBC212BB19D25C2146A7
:10265000E31704EB5373DB10A4EBC303C3F10803CC
:1026600005FB086C1AF80CC04CFA03FC42EA0C0299
:10267000E31704EB537305EBE3035B1CDFF834C093
:102680000CEBC31307EB060C03F80C2000BF701C07
:10269000C6B2464593DB00BF681CC5B2A9F1010074
:1026A000C11700EB5171012202EBE101A94284DC68
:1026B00000BF75E73C0000202DE9F0410646884642
:1026C00015461F46002409E02A5D04FB0761C8B2D5
:1026D0003B464146FFF7E4FE601CC4B2285D00287B
:1026E000F2D1BDE8F081000010B500240BE000211C
:1026F0002046FFF7C4FE054901EBC410802100F01D
:102700002FF8601CC4B2082CF1DB10BD3C00002087
:1027100010B5044622464FF480710248FFF7DCFAF8
:1027200010BD0000000C014010B5044622464FF4D5
:1027300000710248FFF7D0FA10BD0000000C014004
:1027400010B50446FFF735FE7820FFF713FE002092
:10275000FFF710FE2046FFF70DFEFFF738FE10BD15
:1027600070B505460E46FFF724FE7820FFF702FEFF
:102770004020FFF7FFFD002404E0285DFFF7FAFD8D
:10278000601CC4B2B442F8DBFFF721FE70BD00004C
:1027900000B589B00121084600F05AF80121042053
:1027A00000F066F818208DF823000420ADF8200012
:1027B00003208DF8220008A91948FFF7F5F94FF01A
:1027C000804000F087FA0020ADF81A00ADF816003E
:1027D0006320ADF818002320ADF8140000208DF818
:1027E0001C0005A94FF0804000F0D6FA01A800F0C7
:1027F000C7FA6020ADF804000020ADF80C000120FD
:10280000ADF806000020ADF80A0001A94FF08040A5
:1028100000F066FA0121880700F036FA09B000BD21
:102820000008014010B5044621464FF0804000F0FA
:10283000B1FA10BD7047000001460020034A5068FD
:1028400020F44040084350607047000000100240F0
:1028500029B1064AD2690243044BDA6104E0034A13
:10286000D2698243014BDA617047000000100240D8
:1028700029B1064A92690243044B9A6104E0034A73
:1028800092698243014B9A61704700000010024038
:1028900010B500F02FF8012000F084F800BF2120CF
:1028A00000F04EF80028FAD0002000F06FF84FF446
:1028B000806000F07DF8002000F086F84FF4804042
:1028C000FFF7BAFF4FF40011002000F08FF801204D
:1028D00000F086F800BF392000F032F80028FAD066
:1028E000022000F091F800BF00F048F80828FBD162
:1028F00010BD00000F48006840F001000D4908605D
:10290000084640680C4908400A4948600846006883
:102910000A490840074908600846006820F48020FA
:1029200008600846406820F4FE0048604FF41F002D
:1029300088607047001002400000FFF8FFFFF6FEBD
:1029400010B501460022002300204A11012A02D1BD
:10295000094C236806E0022A02D1074C236A01E0F1
:10296000054C636A01F01F02012494401C400CB125
:10297000012000E0002010BD001002400248406825
:1029800000F00C00704700000010024001460020DB
:10299000034A506820F0F000084350607047000080
:1029A00000100240014908607047000000004242E8
:1029B00001460020034A506820F4E060084350605C
:1029C000704700000010024001460020034A506892
:1029D00020F4605040EAC10050607047001002408F
:1029E000014908667047000000004242024600208C
:1029F000044B586820F47C1042EA01031843014B51
:102A0000586070470010024001460020034A506899
:102A100020F003000843506070470000001002409F
:102A2000704710B500F002F810BD00001CB5002082
:102A3000019000903448006840F4803032490860CA
:102A400000BF3148006800F4003000900198401C3D
:102A50000190009818B90198B0F5A06FF1D12A48FB
:102A6000006800F4003010B10120009001E0002067
:102A700000900098012844D12448006840F01000DC
:102A8000224908600846006820F0030008600846F4
:102A9000006840F0020008601B4840681A4948601E
:102AA0000846406848600846406840F480604860D6
:102AB0000846406820F47C1048600846406840F4AE
:102AC000E81048600846006840F08070086000BF69
:102AD0000D48006800F000700028F9D00A484068EE
:102AE00020F00300084948600846406840F00200B2
:102AF000486000BF0448406800F00C000828F9D185
:102B000001E0FFF7C5FE1CBD00100240002002409E
:102B10007047000010B51348006840F001001149EB
:102B2000086008464068104908400E494860084659
:102B300000680E4908400B4908600846006820F408
:102B4000802008600846406820F4FE0048604FF48A
:102B50001F008860FFF765FF4FF0006004490860C0
:102B600010BD0000001002400000FFF8FFFFF6FE5D
:102B700008ED00E02DE9F04F87B00121284800F072
:102B80008FF8012848D127480068401C2549086073
:102B90000846006864283BD12348006800F02EFFF7
:102BA000CDE904012148006800F028FF8046204A52
:102BB000204B00F03BFD82468B461F4909681F4AA7
:102BC0001268881A01F02CF881461D4900F04EFF6A
:102BD000804600F013FF52465B46CDE9000100F04D
:102BE00025FDCDE90201DDE9042300F01FFD0646C5
:102BF000144A154B00F01AFD044600F06DFA134913
:102C000008600D4800680D4908600020054908600B
:102C10000121034800F035F807B0BDE8F08F00004F
:102C2000000400402000002030000020340000207C
:102C3000A60A462575029A3F0000002018000020D1
:102C40000000A041CDCCCCCCCCCC0C40240000204A
:102C500010B50121074800F023F8012808D10648E3
:102C60000068401C044908600121024800F009F88E
:102C700010BD00000008004004000020CA4302828A
:102C80007047CA430282704721B1028842F00102B4
:102C9000028004E002884FF6FE731A4002807047FB
:102CA00030B50246002000230024158A05EA0103FE
:102CB000958905EA010413B10CB1012000E0002060
:102CC00030BD1AB183890B43838102E083898B4332
:102CD0008381704701894FF6F87211400181704776
:102CE00070B5002400220023058C4FF6FF663540A6
:102CF0000584028C8388848B4FF68F752C404FF6A9
:102D0000FC752C400D882C434FF6FF552A400D8949
:102D10004FF6FF7606EA05252A434D8806EA052583
:102D20002A43154DA84202D0144DA8421DD14FF29E
:102D3000FF752A404D894FF6FF7606EA05252A439E
:102D40004FF6FF352A408D8806EA05252A434EF6C0
:102D5000FF752B404DF6FF752B408D8906EA051552
:102D60002B43CD8906EA05152B4383808483CD88C8
:102D70008587028470BD0000002C014000340140B2
:102D80000021018041808180C18001814181818158
:102D9000C181704781877047002202881D4B98428D
:102DA0000ED01D4B98420BD0B0F1804F08D01B4B7A
:102DB000984205D01A4B984202D01A4B984204D13F
:102DC0004FF68F731A404B881A43174B984207D01F
:102DD000164B984204D04FF6FF431A40CB881A4353
:102DE00002808B8883850B8803850A4B98420BD021
:102DF000094B984208D00E4B984205D00D4B984293
:102E000002D00D4B984201D10B7A038601238382B5
:102E100070470000002C01400034014000040040D5
:102E200000080040000C004000100040001400406A
:102E30000040014000440140004801401FB501210D
:102E40000220FFF705FD1948FFF744FF0020ADF809
:102E50000A00ADF806006320ADF8080041F61F40F7
:102E6000ADF8040000208DF80C0001A90F48FFF711
:102E700093FF01210D48FFF701FF012211460B4886
:102E8000FFF71FFF1D208DF8000001208DF80300C3
:102E900002208DF8010001208DF802006846FFF73E
:102EA0008FF901210148FFF7EFFE1FBD000400402C
:102EB00000BFFEE710B523480078202838D122480B
:102EC000007800F0ADFE044620480168204600F07E
:102ED000BBFE28D2FEF706FB3220FEF7BCFCFFF754
:102EE00065F83220FEF7B7FCFEF7F2FA3220FEF763
:102EF000B2FCFFF751F83220FEF7ADFCFEF7F2FA14
:102F00003220FEF7A8FCFFF751F83220FEF7A3FCB1
:102F1000FEF7DEFA3220FEF79EFCFFF73DF8322086
:102F2000FEF799FC0DE0FEF7D3FAFFF735F808E05D
:102F300000200749087007490860FEF7C9FAFFF743
:102F40002BF810BD380000201C00002024000020B9
:102F50001100002000000020490050EAC12018BFE5
:102F600004204A0D18BF40F0010040F2FF72B2EB9E
:102F7000515F08BF40F00200012808BF05207047DC
:102F800030380A2801D20120704700207047000025
:102F90008CB04FF4A060FFF74BF9FFF723FAFEF770
:102FA0006DFBFEF7A9FAFFF727F8FFF747FFFEF7DB
:102FB00007FFFFF705F8FEF775FAFEF704FA01229E
:102FC00031490020FEF722FAFFF73CF95AE0FEF7FC
:102FD00003FBFEF70BFFFEF761FCFFF76BFFFEF74D
:102FE000E5FBFEF705FB2948006829490968884286
:102FF00048D92848006800F001FDCDE908012648BD
:10300000006800F0FBFC0646244A254B00F00EFB4E
:10301000CDE904011D4909681D4A1268881A00F0AB
:10302000FFFD019000F0EAFC064600221D4B00F077
:1030300039F9CDE90201DDE9042300F0F7FACDE921
:103040000601DDE9082300F0F1FA04460022164BE0
:1030500000F028F9804689460B48006800F0CEFC55
:1030600042464B46CDE90A0100F068F8824600F07E
:1030700033F8054908600020FEF7FAF903480068B4
:1030800003490860A3E7000028000020000000209A
:10309000140000203000002034000020A60A46253D
:1030A00075029A3F0000344000408F4010B500295F
:1030B0000AD00878002807D005487844FDF7AAF917
:1030C000002801D0002010BD0248784410BD000047
:1030D000261900001E19000021F00042A2F16052E2
:1030E000B2F5801F01F0004328BFD2F17F6C0BD9ED
:1030F0005FEA001C43EAC20242EB507018BF7047FF
:1031000028BF20F001007047B2F5801FBCBF1846F1
:1031100070474FEA410C1CF5001F02D2084600F030
:103120000DBE70B500F02CFB00000089FFF7F6BF64
:103130004FF00040A0F580007047000010B591EA04
:10314000030F48BF83F0004300F17683841A71EBCC
:10315000030C05D2121943EB0C03001B61EB0C01AD
:10316000DFF824E14FEA1154A4EB135C1EEA430F8D
:1031700018BF9EEA445F73D023EA0E03DCF1200EF1
:1031800021EA045143F4801332D322FA0CFE10EBEF
:103190000E0023FA0CFE41EB0E01CCF1200E03FAD7
:1031A0000EFE10EB0E0051F10001B1F5801FCCF1C5
:1031B000200E32D201EB045112FA0EF2BDE810409B
:1031C00058BF7047401C38BF5FEA420218BF7047C3
:1031D000002814BF20F0010041F100014FEA410333
:1031E00013F5001F38BF7047A1F1C04100F016BBB6
:1031F000012A43EB0302ACF1200CDCF11F0E32BFBD
:103200004FF0000E23FA0CF310EB030041EB0451D6
:10321000B4EB115FD0D0A1EB045101F58011490846
:103220005FEA300001EB04510ED350F1000038BFCB
:1032300012FA0EFE08D1BDE81040C9E7401C38BFA5
:103240005FEA4202CAD1C3E7BDE810404FEA41033A
:1032500013F5001F38BF7047A1F1C04100F0DEBA7E
:103260009EEA445F08D011EA5E0FBDE8104004BF3B
:1032700001F0004100207047BDE8104070B500F03B
:103280007FFA00BF64FBBE3E0000E0FF491058BF5C
:10329000C1F140415B1058BFC3F140438B42EFF393
:1032A000008070472DE9C04130B4DFF8A0C23CEA8D
:1032B000111418BF3CEA131400F0EC8081EA0305F6
:1032C0001CEA111444EAD57418BF1CEA131500F067
:1032D000C780A4EB05044FF0004545EAC12145EA4B
:1032E000C32341EA505143EA525304F17F74994297
:1032F00004F500344FEAC0204FEAC22208BF9042D2
:1033000000F09C804FEA13650FF24016765D4FEA9D
:10331000134506FB05F7C7F1807706FB07F74FEA71
:10332000D737A7FB03687642C8F58038A7FB06CEDF
:1033300038BFA8F1010807FB08E64FF0000EA6FB16
:10334000028CE6FB03CEDCF1000CCEF1004E38BF60
:10335000AEF1010EA6FB0C584FF000074FF0000530
:10336000E6FB0E87A1FB08C6A0FB07CE16EB0E06F8
:1033700045F10005E1FB076515F1E04E7EBFA4F5C0
:1033800080345FEA46066D4116F1800745F100057D
:103390004FEA17274FEA066647EA0567A6F1DE46B9
:1033A000B6F1805F4FEA15251FD9384624F0010C8D
:1033B00005EBC471BCF1FE6F01EB0C1102D8F0BC3F
:1033C000BDE8008124425CBF01F5801E9EEAC47FF7
:1033D00002D4F0BCBDE80081244238D4F0BCA1F195
:1033E000C041BDE8004100F019BA4FEAD22242EADA
:1033F00043524FEAD323A7FB02864FEAD02040EA8C
:10340000415007FB03661EEA0E0F4FEAD12105FB70
:10341000026658BFA6EB0056B6EB00564FEA520EB6
:103420004EEAC37E18EB0E0E56EB530EBDD518EBCD
:1034300002085E417F1C55F10005B6E74FF4801588
:103440004FF000074FF000064FF00008ADE7F0BC6A
:103450004FF0000001F1C04101F00041BDE80081E2
:1034600011EA0C1F0CEA131500D00CE013EA0C1F34
:1034700000F025804FF00000F0BC81EA030101F06C
:103480000041BDE80081F0BCBDE8004181EA0301D4
:1034900000F0C4B9F0BCBDE8004170B500F070F9AF
:1034A000097EFC3E00F007B881EA03014FF00000FE
:1034B00001F00041704781EA030100F0AFB9F0BCB0
:1034C000BDE800414FF0000021497047FFFDFBF9C6
:1034D000F7F5F4F2F0EEEDEBE9E8E6E4E3E1E0DE47
:1034E000DDDBDAD8D7D5D4D3D1D0CFCDCCCBCAC8B9
:1034F000C7C6C5C4C2C1C0BFBEBDBCBBBAB9B8B7E0
:10350000B6B5B4B3B2B1B0AFAEADACABAAA9A8A8D2
:10351000A7A6A5A4A3A3A2A1A09F9F9E9D9C9C9BA0
:103520009A9999989797969595949393929191904B
:103530008F8F8E8E8D8C8C8B8B8A898988888787DC
:103540008685858484838382828181800000FF0751
:103550000000F87F51EA030C17D41CF5801F58BFF8
:10356000BCF5801F00F10680994218BF704708BF64
:103570009042704707D711F5801F58BF13F5801F81
:1035800019D499427047894270471CF5801F08D5AD
:10359000BCF5801FF7D58B4218BF704708BF824229
:1035A00070474FF4001C1CEB410F38BF1CEB430F5E
:1035B00001D28B42704770B500F0E2F892244900C6
:1035C0004FF000514FF08053FFF760BE4FEA4103C8
:1035D0004FEA5353A3F58063D3F11E03C8BFD3F161
:1035E000210C0CDD4FF0004242EAC12242EA505267
:1035F00032FA03FC8CEAE17CACEBE1707047102BF3
:10360000C4BF0020704703F5787CBCF1FF3F04D0B5
:103610006FF0004282EA2100704770B500F0B0F808
:103620004992248000207047F2E70000DFF848C18B
:1036300070B51CEA111E1EBF1CEA13159EEA0C0F82
:1036400095EA0C0F00F06F8081EA030423EA4C1323
:103650004EEAD47E21EA4C1141F4801143F48013E8
:10366000AE44A1FB024CA0FB0365AEF17F7E361990
:1036700055EB0C05A1FB034C4CF10003A0FB021C15
:1036800016EB0C06654153F10003094218BF46F0E2
:10369000010613F4007F0BD14FEA03314FEA0530E6
:1036A000340341EA155140EA16506FF003020AE074
:1036B0004FEAC3214FEAC520F40241EA555140EADE
:1036C00056506FF0020202EB2E4201EB025585EAE2
:1036D000CE710AD05FEA440C18BF24F0004450F1C8
:1036E000000041F1000120EAD47040F2FE7C624506
:1036F00000D270BDA84214BF4FF080444FF0404448
:10370000002E08BF0024BEF1806FA8BFA1F1C04108
:10371000BDE8704080F282804FF0000001F1C041AE
:1037200001F0004170479EEA0C0F0CEA131518BF18
:1037300095EA0C0F06D04FF0000081EA030E0EF060
:10374000004170BD00F01CF88900013E00F007B890
:1037500000F009B84FEA430C5FEA5C5C08D081EAEC
:10376000030100F05BB84FEA410C5FEA5C5CF6D104
:103770004FF00000014970470000FF070000F87F8C
:103780000EF1020E2EF0030E5EF8046B364205D4E5
:10379000012A43EB030515F5001F12D8012841EB60
:1037A000010C1CF5001F0CD80ED14FEAD17C15F589
:1037B000001F0CEB4C0C0CF1020C08BF4CEBD37C43
:1037C00004E04FF0080C01E04FEAD37C0CEB4C0511
:1037D00026FA05F606F00706B6F1040C06D20EEB43
:1037E000860CBDE870404CF0010C6047DFE80CF03F
:1037F000090B02024FF000414FF00000A1F500213B
:1038000070BD19461046012851EB010418BFD4F5CC
:10381000001484BF002001F0004170BD0808A0F52D
:1038200000114FEA3101704710B591EA030F48BF0C
:1038300083F000433FF58AAC841A71EB030C07D286
:1038400012198CF0004C43EB0C03001B61EB0C01D4
:10385000DFF8A4E14FEA1154A4EB135C1EEA430F16
:1038600018BF9EEA445F00F0B08023EA6E03524224
:1038700021EA0451C3EB6E0338BF5B1EDCF1200E5E
:1038800025D322FA0CFE10EB0E0043FA0CFE41EB9E
:103890000E01CCF1200E03FA0EFE10EB0E0051F1DA
:1038A0000001CCF1200E29D412FA0EF201EB0451E2
:1038B000BDE8104058BF7047401C1CBFB2F1004F1C
:1038C000704700280CBF491C20F00100704712EB24
:1038D000020E43EB030218BF4FF0010E4EEA420204
:1038E000ACF1200CDCF11E0E54D943FA0CFE10EBA7
:1038F0000E0051F1FF31CCF11E0ED5D50EF1010EA7
:1039000012FA0EFE404141EB010101EB445C5FEA1B
:103910005C5C10D910EBDE7001EB045138BFBEF1D6
:10392000004FBDE8104018BF704700280CBF491C6D
:1039300020F00100704730D24FEAD42C11F500116D
:1039400024F400641BD0B1FA81F20B3AA41AA41E2D
:10395000D2F12003914030FA03F31943904001EB78
:10396000CC71002C01EB0451BDE81040A8BF70479A
:1039700001F1C0414FF0000001F000417047B0FA82
:1039800080F310FA03F100D110BDE41A173C48058A
:10399000C90AE4E701EB045110BD491001EB0451E1
:1039A000BDE810404FEA300002E04FF000017047E0
:1039B0004A0008BF0042F8D0B2F5001F28BF704788
:1039C00001F000414FF0000070479EEA445F07D0CD
:1039D00011EA5E0FBDE8104004BF002100207047CF
:1039E000BDE8104070B5FFF7CBFE00BF40DFF63EEC
:1039F00083F00041104670470000E0FF43004FEAAB
:103A0000D30C4FEA3C0C43401FBF40070CF1605100
:103A100013F0FE4F70471CF0006F03D100200CF034
:103A2000004170470CF0004343EA507010B540EA83
:103A3000CC0000F03DF900BF000000924FEA000109
:103A4000FFF7ECBE4FF000414FF00000A1F5002160
:103A50007047401058BFC0F14040491058BFC1F1F5
:103A600040418142EFF30080704700004FF47F0C2B
:103A70001CEAD0121EBF1CEAD11392EA0C0F93EA83
:103A80000C0F00F0858090EA010F48BF42F480726D
:103A900040F4000C41F400002CF07F4120F07F4006
:103AA00000B58142A2EB03020FF2081CACEB504EB2
:103AB000C0F100009EF800E04FEA4E0E00FB0EFC45
:103AC00038BF49004FEA2C1C02F5FA020CFB0EF33A
:103AD0004FEACE1E4FEA112C4FEAC1210EEB635E76
:103AE00042EB22420EFB0CFC4FEA1C5300FB03117D
:103AF0004FEA112C4FEA01310EFB0CFC4FEADC4C73
:103B000000FB0C11C14228BF09184CEB03335DF8D0
:103B100004EB10EB410143EBC250B2F57C0F38BF10
:103B2000704729D512F0F00F1CBF00F1C04000F023
:103B300000407047008182838485868788898B8CCA
:103B40008D8E8F919293959697999A9C9D9FA0A206
:103B5000A3A5A7A8AAACAEB0B2B3B5B7B9BCBEC056
:103B6000C2C5C7C9CCCED1D4D7D9DCDFE2E6E9ECF7
:103B7000F0F3F7FAFE0000004FEA400C0CF1807CF5
:103B8000BCF17E4F28BF7047B0F1C04000F0D6B8FE
:103B900090EA010F0CEAD11348BF42F480726245EB
:103BA00038BF634507D213F47F0F16D080EA0100B7
:103BB00000F00040704710B500F07AF8097EFC3E36
:103BC00000F005B880EA010000F00040704780EA8C
:103BD000010000F0004000F0B1B812F47F0F04BF04
:103BE0000248704780EA010000F0A8B80000C07FDA
:103BF00010F0004148BF4042B0FA80F310FA03F2DF
:103C0000C3F19D030BD051EAC35101EB12205306BF
:103C100038BF704700F1010008BF20F00100704775
:103C2000B0FA80F310FA03F2C3F19D030AD0D9056C
:103C300001EB1220530638BF704700F1010008BFA6
:103C400020F001007047000050EA010C00F11380E1
:103C50001CF5000F58BFBCF5000F01D48842704717
:103C600007D710F5000F58BF11F5000F15D4884283
:103C70007047894270471CF5000F04D5BCF5000F52
:103C8000F7D5814270474FF0807C1CEB400F38BF66
:103C90001CEB410F01D28142704710B500F008F8CB
:103CA000922449004FF000504FF08051FFF7D1BEF1
:103CB0000EF1020E2EF0030E5EF8044B244204D4E3
:103CC0004FEA4102B2F17F4F11D84FEA4003B3F1FE
:103CD0007F4F0CD80ED14FEAD07CB2F17F4F0CEB66
:103CE0004C0C0CF1020C08BF4CEBD17C04E04FF003
:103CF000080C01E04FEAD17C0CEB4C0324FA03F4EE
:103D000004F00704B4F1040C06D20EEB840CBDE8F9
:103D100010404CF0010C6047DFE80CF0070802028D
:103D20004FF00040A0F5800010BD0846420018BFCB
:103D3000D2F1807288BF00F0004010BDFF2141EA3F
:103D4000D050C0057047FCF7DABC0000000000004E
:103D500000000000000000000000000000F800006B
:103D60000000000000333000000000160E00160EA8
:103D70000000000000000000000040C07840C07853
:103D80004000043F04043F040400007088FC083035
:103D90000000001820FF211E0000F008F000E018CD
:103DA000000000211C031E211E0000F00888700086
:103DB00000001E21232419272110000000160E00E8
:103DC00000000000000000000000000000E01804F7
:103DD0000200000000071820400000020418E00064
:103DE00000000040201807000000404080F08040A4
:103DF00040000202010F01020200000000F000007A
:103E000000000101011F010101000000000000008D
:103E1000000000B070000000000000000000000082
:103E2000000000010101010101010000000000008B
:103E30000000003030000000000000000000806042
:103E40001804006018060100000000E010080810C7
:103E5000E000000F102020100F00001010F80000EC
:103E600000000020203F2020000000700808088883
:103E70007000003028242221300000300888884853
:103E800030000018202020110E000000C02010F883
:103E9000000000070424243F240000F80888880854
:103EA00008000019212020110E0000E01088881859
:103EB0000000000F112020110E0000380808C8383B
:103EC00008000000003F000000000070880808881B
:103ED0007000001C222121221C0000E010080810A4
:103EE000E0000000312222110F00000000C0C000DD
:103EF00000000000003030000000000000C0C000E2
:103F00000000000080B07000000000008040201021
:103F100008000001020408102000404040404040DA
:103F2000400004040404040404000008102040803D
:103F30000000002010080402010000704808080872
:103F4000F0000000003036010000C030C828E81042
:103F5000E0000718272423140B000000C038E000FD
:103F60000000203C23020227382008F88888887047
:103F70000000203F202020110E00C0300808080853
:103F80003800071820202010080008F8080808103A
:103F9000E000203F202020100F0008F88888E80863
:103FA0001000203F20202320180008F88888E80807
:103FB0001000203F200003000000C030080808382F
:103FC000000007182020221E020008F80800000840
:103FD000F808203F210101213F20000808F80808C7
:103FE00000000020203F2020000000000808F80802
:103FF0000800C08080807F00000008F888C0281872
:104000000800203F20012638200008F808000000A2
:104010000000203F20202020300008F8F800F8F8A9
:104020000800203F003F003F200008F830C0000893
:10403000F808203F200007183F00E010080808108B
:10404000E0000F10202020100F0008F808080808D2
:10405000F000203F210101010000E01008080810D5
:10406000E0000F18242438504F0008F8888888880A
:104070007000203F2000030C3020007088080808E2
:1040800038000038202121221C00180808F80808F0
:1040900018000000203F2000000008F80800000879
:1040A000F808001F202020201F000878880000C882
:1040B0003808000007380E010000F80800F8000872
:1040C000F800033C0700073C03000818688080687C
:1040D000180820302C03032C30200838C800C838BA
:1040E00008000000203F2000000010080808C83821
:1040F00008002038262120201800000000FE0202BF
:1041000002000000007F40404000000C30C0000072
:104110000000000000010638C00000020202FE009C
:104120000000004040407F0000000020100804080C
:10413000102000000000000000000000000000004F
:104140000000808080808080808000020408000061
:10415000000000000000000000000000808080805F
:1041600000000019242222223F2008F8008080004D
:104170000000003F112020110E0000000080808010
:104180000000000E11202020110000000080808817
:10419000F800000E112020103F2000008080808059
:1041A0000000001F222222221300008080F0888855
:1041B00088180020203F20200000000080808080A0
:1041C0008000006B94949493600008F800808080D5
:1041D0000000203F210000203F2000809898000030
:1041E00000000020203F2020000000000080989860
:1041F000000000C08080807F000008F80000808000
:104200008000203F24022D302000000808F8000024
:1042100000000020203F20200000808080808080DF
:104220008000203F20003F20003F008080008080F1
:10423000000000203F2100203F200000808080807F
:104240000000001F202020201F00808000808000B0
:10425000000080FFA12020110E000000008080805F
:104260008000000E112020A0FF80808080008080D0
:10427000800020203F2120000100000080808080FD
:1042800080000033242424241900008080E08080F2
:1042900000000000001F202000008080000000803F
:1042A0008000001F202020103F20808080000080A0
:1042B000808000010E3008060100808000800080B0
:1042C00080800F300C030C300F0000808000808055
:1042D00080000020312E0E31200080808000008080
:1042E000808080818E701806010000808080808030
:1042F00080000021302C2221300000000000807C52
:10430000020200000000003F404000000000FF00EB
:10431000000000000000FF0000000002027C80009E
:1043200000000040403F000000000080404080004E
:1043300000800000000000010100000000000000FB
:104340000000002F000000000700070000147F1489
:104350007F1400242A7F2A12002313086462003687
:104360004955225000000007000000001C224100B7
:10437000000041221C000014083E08140008083EFA
:104380000808000000A060000008080808080000F5
:1043900060600000002010080402003E5149453EC4
:1043A0000000427F400000426151494600214145E2
:1043B0004B31001814127F10002745454539003C49
:1043C0004A49493000017109050300364949493617
:1043D00000064949291E0000363600000000563606
:1043E00000000008142241000014141414140000EA
:1043F00041221408000201510906003E4955592E78
:10440000007C1211127C007F49494936003E41412F
:104410004122007F4141221C007F49494941007FE0
:1044200009090901003E4149497A007F0808087FCF
:104430000000417F4100002040413F01007F0814FF
:104440002241007F40404040007F020C027F007FFD
:104450000408107F003E4141413E007F09090906E2
:10446000003E4151215E007F091929460046494915
:1044700049310001017F0101003F4040403F001FE2
:104480002040201F003F4038403F00631408146361
:1044900000070870080700615149454300007F414B
:1044A0004100000204081020000041417F00000488
:1044B00002010204004040404040000001020400AC
:1044C000002054545478007F484444380038444411
:1044D000442000384444487F00385454541800089D
:1044E0007E0901020018A4A4A47C007F08040478BB
:1044F0000000447D4000004080847D00007F102843
:1045000044000000417F4000007C04180478007CD7
:104510000804047800384444443800FC2424241857
:104520000018242418FC007C080404080048545493
:10453000542000043F444020003C4040207C001CAC
:104540002040201C003C4030403C004428102844BF
:10455000001CA0A0A07C004464544C440000087FD0
:1045600041000000007F00000000417F08000008BB
:1045700004081008EFBC8C000000000000000000E0
:10458000000000000000000000005838000000009B
:104590000000000000000000E38082000000000036
:1045A00000000000000000000000000000001824CF
:1045B000241800000000000000000000E6B8A90078
:1045C0001060028C0000FE9292929292FE00000017
:1045D00004047E01407E42427E427E42427E400092
:1045E000E9809F00404042CC0004F49494FF9494EE
:1045F000F40400000040201F20484442415F414233
:1046000044484000E5BAA6000000FC242424FC2510
:104610002624FC242424040040308F80844C55251B
:104620002525554C80808000E9878C000000FE9293
:10463000929292FE92929292FE0000004040444478
:104640004444447F4444444444404000E7A88B0031
:104650002424A4FE2322003E22222222223E000005
:10466000080601FF0106404949497F49494941007F
:10467000EFBC9A00000000000000000000000000F5
:1046800000000000000036360000000000000000BE
:1046900000000000E2848300060909E6F80C040229
:1046A00002020202041E0000000000071F3020402A
:1046B0004040404020100000E8AEBE00404042CCE8
:1046C0000040A09E8282829EA02020000000003F29
:1046D000908840432C10284641808000E7BDAE0002
:1046E000001715D55557557D555755D51517000049
:1046F0004040407F555555555555557F40404000E9
:10470000E8B6850040484848FF484842A29E82A239
:10471000C2BE000080601F207F4444404F4848488C
:10472000484F4000E9809F00404042CC0004F49490
:1047300094FF9494F40400000040201F2048444259
:10474000415F414244484000E68AA500101010FF36
:10475000109000FE82828292A29E00000444827F1A
:10476000010000FF80432C102C438000E8ADA60020
:1047700012EAAFAAEA0FFA02888C5724548C8400FC
:104780000202EAAAAAABAAABAAAAAAAAEA02020051
:10479000E69C80004040C05F5555D5555555555F46
:1047A0004040400020603F251515FF904729112DFE
:1047B00043808000E5A4A70020202020202020FFA7
:1047C000202020202020200080804020100C03008A
:1047D000030C102040808000E580BC00008060F861
:1047E0000704E4A4A4BFA4A4E4040000010000FFA3
:1047F00040407F4A4A4A4A4A7F404000E8BDA600FE
:104800000008884828180FE8080808080808000069
:1048100008080909090909FF09090909090808001F
:10482000E8BDAE00C8B88FE888C820900C030C9093
:1048300020404000081808FF0404003F4442414063
:1048400040700000E5B0BA00000000FE4242424263
:10485000C24242427E0000008040300F0000000053
:10486000030C102040808000E5AFB800101010103D
:104870001010101010FF1010101010000000000198
:1048800006000040807F000000000000E8B79D00A7
:10489000003E22E2223E00FE2222222222E20200EA
:1048A000203F201F1111007F4444444444474000EE
:1048B000E7A6BB00040404F484D4A5A6A4D484F41D
:1048C0000404040000FE0202123A1613121A3242C5
:1048D000827E000000000000FF010101310909098A
:1048E00009897101010101FFFF808080808080962D
:1048F00081808080808080FFFF01818181FD89919E
:10490000A1C1FD81818101FFFF808080809F88841B
:1049100082819F80808080FF0400000800000000EA
:104920000000000200010000100000000240000032
:10493000000000A00000000005400000000000C8CA
:10494000000000000C4000000000409C000000003F
:10495000194000000020BCBE0000000034400000F0
:10496000BFC91B8E00000004B5400000504BCFD0E3
:104970006607E2CF010000006C4100003E8251AAB0
:10498000DFEEA73401000000D9420000DCB5A0E250
:104990003A301F97FFFFFFFFB4450000FD25A0C878
:1049A000E9A3C14FFFFFFFFFFF3F000000000080B1
:1049B00000000000FF3F0000000000800000000039
:1049C000FC490008000000203C000000280100080D
:1049D000384A00083C0000208C0A0000440100080E
:1049E0001C00000043000000F8FFFFFF0C00000067
:1049F0000E0000000F0000002E000000000000006C
:104A000000000000000000000000000000000000A6
:104A100000000000000000001E0000000000000078
:104A2000000000000000000000000000DA0F494014
:084A30000000D041000000006D
:04000005080000ED02
:00000001FF
